{
  "contracts/Bank.sol": {
    "Bank": {
      "abi": [
        {
          "inputs": [],
          "stateMutability": "nonpayable",
          "type": "constructor"
        },
        {
          "anonymous": false,
          "inputs": [
            {
              "indexed": true,
              "internalType": "address",
              "name": "customer",
              "type": "address"
            },
            {
              "indexed": false,
              "internalType": "uint256",
              "name": "amount",
              "type": "uint256"
            },
            {
              "indexed": false,
              "internalType": "uint256",
              "name": "timestamp",
              "type": "uint256"
            }
          ],
          "name": "Deposit",
          "type": "event"
        },
        {
          "anonymous": false,
          "inputs": [
            {
              "indexed": true,
              "internalType": "address",
              "name": "from",
              "type": "address"
            },
            {
              "indexed": true,
              "internalType": "address",
              "name": "to",
              "type": "address"
            },
            {
              "indexed": false,
              "internalType": "uint256",
              "name": "amount",
              "type": "uint256"
            },
            {
              "indexed": false,
              "internalType": "uint256",
              "name": "timestamp",
              "type": "uint256"
            }
          ],
          "name": "Transfer",
          "type": "event"
        },
        {
          "anonymous": false,
          "inputs": [
            {
              "indexed": true,
              "internalType": "address",
              "name": "customer",
              "type": "address"
            },
            {
              "indexed": false,
              "internalType": "uint256",
              "name": "amount",
              "type": "uint256"
            },
            {
              "indexed": false,
              "internalType": "uint256",
              "name": "timestamp",
              "type": "uint256"
            }
          ],
          "name": "Withdraw",
          "type": "event"
        },
        {
          "inputs": [],
          "name": "bankOwner",
          "outputs": [
            {
              "internalType": "address",
              "name": "",
              "type": "address"
            }
          ],
          "stateMutability": "view",
          "type": "function"
        },
        {
          "inputs": [
            {
              "internalType": "address",
              "name": "",
              "type": "address"
            }
          ],
          "name": "customerBalance",
          "outputs": [
            {
              "internalType": "uint256",
              "name": "",
              "type": "uint256"
            }
          ],
          "stateMutability": "view",
          "type": "function"
        },
        {
          "inputs": [],
          "name": "depositMoney",
          "outputs": [],
          "stateMutability": "payable",
          "type": "function"
        },
        {
          "inputs": [],
          "name": "getBankBalance",
          "outputs": [
            {
              "internalType": "uint256",
              "name": "",
              "type": "uint256"
            }
          ],
          "stateMutability": "view",
          "type": "function"
        },
        {
          "inputs": [],
          "name": "getCustomerBalance",
          "outputs": [
            {
              "internalType": "uint256",
              "name": "",
              "type": "uint256"
            }
          ],
          "stateMutability": "view",
          "type": "function"
        },
        {
          "inputs": [
            {
              "internalType": "address payable",
              "name": "_to",
              "type": "address"
            },
            {
              "internalType": "uint256",
              "name": "_total",
              "type": "uint256"
            }
          ],
          "name": "withdrawMoney",
          "outputs": [],
          "stateMutability": "nonpayable",
          "type": "function"
        }
      ],
      "evm": {
        "bytecode": {
          "linkReferences": {},
          "object": "6080604052348015600f57600080fd5b50336000806101000a81548173ffffffffffffffffffffffffffffffffffffffff021916908373ffffffffffffffffffffffffffffffffffffffff160217905550610b068061005f6000396000f3fe6080604052600436106100555760003560e01c806316c05aa21461005a57806337ebe47b146100645780637b83b50b146100a1578063a853409a146100cc578063e147aaa7146100f7578063f274c89714610122575b600080fd5b61006261014b565b005b34801561007057600080fd5b5061008b60048036038101906100869190610682565b61029d565b60405161009891906106c8565b60405180910390f35b3480156100ad57600080fd5b506100b66102b5565b6040516100c391906106c8565b60405180910390f35b3480156100d857600080fd5b506100e161034c565b6040516100ee91906106c8565b60405180910390f35b34801561010357600080fd5b5061010c610393565b60405161011991906106f2565b60405180910390f35b34801561012e57600080fd5b5061014960048036038101906101449190610777565b6103b7565b005b6000340361018e576040517f08c379a00000000000000000000000000000000000000000000000000000000081526004016101859061083a565b60405180910390fd5b34600160003373ffffffffffffffffffffffffffffffffffffffff1673ffffffffffffffffffffffffffffffffffffffff16815260200190815260200160002060008282546101dd9190610889565b925050819055503373ffffffffffffffffffffffffffffffffffffffff167f90890809c654f11d6e72a28fa60149770a0d11ec6c92319d6ceb2bb0a4ea1a15344260405161022c9291906108bd565b60405180910390a23073ffffffffffffffffffffffffffffffffffffffff163373ffffffffffffffffffffffffffffffffffffffff167f9ed053bb818ff08b8353cd46f78db1f0799f31c9e4458fdb425c10eccd2efc4434426040516102939291906108bd565b60405180910390a3565b60016020528060005260406000206000915090505481565b60008060009054906101000a900473ffffffffffffffffffffffffffffffffffffffff1673ffffffffffffffffffffffffffffffffffffffff163373ffffffffffffffffffffffffffffffffffffffff1614610346576040517f08c379a000000000000000000000000000000000000000000000000000000000815260040161033d90610958565b60405180910390fd5b47905090565b6000600160003373ffffffffffffffffffffffffffffffffffffffff1673ffffffffffffffffffffffffffffffffffffffff16815260200190815260200160002054905090565b60008054906101000a900473ffffffffffffffffffffffffffffffffffffffff1681565b60008054906101000a900473ffffffffffffffffffffffffffffffffffffffff1673ffffffffffffffffffffffffffffffffffffffff163373ffffffffffffffffffffffffffffffffffffffff1614610445576040517f08c379a000000000000000000000000000000000000000000000000000000000815260040161043c906109ea565b60405180910390fd5b600160003373ffffffffffffffffffffffffffffffffffffffff1673ffffffffffffffffffffffffffffffffffffffff168152602001908152602001600020548111156104c7576040517f08c379a00000000000000000000000000000000000000000000000000000000081526004016104be90610a7c565b60405180910390fd5b80600160003373ffffffffffffffffffffffffffffffffffffffff1673ffffffffffffffffffffffffffffffffffffffff16815260200190815260200160002060008282546105169190610a9c565b925050819055508173ffffffffffffffffffffffffffffffffffffffff166108fc829081150290604051600060405180830381858888f19350505050158015610563573d6000803e3d6000fd5b503373ffffffffffffffffffffffffffffffffffffffff167ff279e6a1f5e320cca91135676d9cb6e44ca8a08c0b88342bcdb1144f6511b56882426040516105ac9291906108bd565b60405180910390a23373ffffffffffffffffffffffffffffffffffffffff163073ffffffffffffffffffffffffffffffffffffffff167f9ed053bb818ff08b8353cd46f78db1f0799f31c9e4458fdb425c10eccd2efc4483426040516106139291906108bd565b60405180910390a35050565b600080fd5b600073ffffffffffffffffffffffffffffffffffffffff82169050919050565b600061064f82610624565b9050919050565b61065f81610644565b811461066a57600080fd5b50565b60008135905061067c81610656565b92915050565b6000602082840312156106985761069761061f565b5b60006106a68482850161066d565b91505092915050565b6000819050919050565b6106c2816106af565b82525050565b60006020820190506106dd60008301846106b9565b92915050565b6106ec81610644565b82525050565b600060208201905061070760008301846106e3565b92915050565b600061071882610624565b9050919050565b6107288161070d565b811461073357600080fd5b50565b6000813590506107458161071f565b92915050565b610754816106af565b811461075f57600080fd5b50565b6000813590506107718161074b565b92915050565b6000806040838503121561078e5761078d61061f565b5b600061079c85828601610736565b92505060206107ad85828601610762565b9150509250929050565b600082825260208201905092915050565b7f596f75206e65656420746f206465706f73697420736f6d6520616d6f756e742060008201527f6f66206d6f6e6579210000000000000000000000000000000000000000000000602082015250565b60006108246029836107b7565b915061082f826107c8565b604082019050919050565b6000602082019050818103600083015261085381610817565b9050919050565b7f4e487b7100000000000000000000000000000000000000000000000000000000600052601160045260246000fd5b6000610894826106af565b915061089f836106af565b92508282019050808211156108b7576108b661085a565b5b92915050565b60006040820190506108d260008301856106b9565b6108df60208301846106b9565b9392505050565b7f596f75206d75737420626520746865206f776e6572206f66207468652062616e60008201527f6b20746f2073656520616c6c2062616c616e6365732e00000000000000000000602082015250565b60006109426036836107b7565b915061094d826108e6565b604082019050919050565b6000602082019050818103600083015261097181610935565b9050919050565b7f596f75206d75737420626520746865206f776e657220746f206d616b6520776960008201527f746864726177616c730000000000000000000000000000000000000000000000602082015250565b60006109d46029836107b7565b91506109df82610978565b604082019050919050565b60006020820190508181036000830152610a03816109c7565b9050919050565b7f596f75206861766520696e7375666669656e742066756e647320746f2077697460008201527f6864726177000000000000000000000000000000000000000000000000000000602082015250565b6000610a666025836107b7565b9150610a7182610a0a565b604082019050919050565b60006020820190508181036000830152610a9581610a59565b9050919050565b6000610aa7826106af565b9150610ab2836106af565b9250828203905081811115610aca57610ac961085a565b5b9291505056fea26469706673582212203d625ad02d21e4d47b98daf47c3eda24b83c85d17bda0a7035a6443ed6fb87c764736f6c634300081b0033",
          "opcodes": "PUSH1 0x80 PUSH1 0x40 MSTORE CALLVALUE DUP1 ISZERO PUSH1 0xF JUMPI PUSH1 0x0 DUP1 REVERT JUMPDEST POP CALLER PUSH1 0x0 DUP1 PUSH2 0x100 EXP DUP2 SLOAD DUP2 PUSH20 0xFFFFFFFFFFFFFFFFFFFFFFFFFFFFFFFFFFFFFFFF MUL NOT AND SWAP1 DUP4 PUSH20 0xFFFFFFFFFFFFFFFFFFFFFFFFFFFFFFFFFFFFFFFF AND MUL OR SWAP1 SSTORE POP PUSH2 0xB06 DUP1 PUSH2 0x5F PUSH1 0x0 CODECOPY PUSH1 0x0 RETURN INVALID PUSH1 0x80 PUSH1 0x40 MSTORE PUSH1 0x4 CALLDATASIZE LT PUSH2 0x55 JUMPI PUSH1 0x0 CALLDATALOAD PUSH1 0xE0 SHR DUP1 PUSH4 0x16C05AA2 EQ PUSH2 0x5A JUMPI DUP1 PUSH4 0x37EBE47B EQ PUSH2 0x64 JUMPI DUP1 PUSH4 0x7B83B50B EQ PUSH2 0xA1 JUMPI DUP1 PUSH4 0xA853409A EQ PUSH2 0xCC JUMPI DUP1 PUSH4 0xE147AAA7 EQ PUSH2 0xF7 JUMPI DUP1 PUSH4 0xF274C897 EQ PUSH2 0x122 JUMPI JUMPDEST PUSH1 0x0 DUP1 REVERT JUMPDEST PUSH2 0x62 PUSH2 0x14B JUMP JUMPDEST STOP JUMPDEST CALLVALUE DUP1 ISZERO PUSH2 0x70 JUMPI PUSH1 0x0 DUP1 REVERT JUMPDEST POP PUSH2 0x8B PUSH1 0x4 DUP1 CALLDATASIZE SUB DUP2 ADD SWAP1 PUSH2 0x86 SWAP2 SWAP1 PUSH2 0x682 JUMP JUMPDEST PUSH2 0x29D JUMP JUMPDEST PUSH1 0x40 MLOAD PUSH2 0x98 SWAP2 SWAP1 PUSH2 0x6C8 JUMP JUMPDEST PUSH1 0x40 MLOAD DUP1 SWAP2 SUB SWAP1 RETURN JUMPDEST CALLVALUE DUP1 ISZERO PUSH2 0xAD JUMPI PUSH1 0x0 DUP1 REVERT JUMPDEST POP PUSH2 0xB6 PUSH2 0x2B5 JUMP JUMPDEST PUSH1 0x40 MLOAD PUSH2 0xC3 SWAP2 SWAP1 PUSH2 0x6C8 JUMP JUMPDEST PUSH1 0x40 MLOAD DUP1 SWAP2 SUB SWAP1 RETURN JUMPDEST CALLVALUE DUP1 ISZERO PUSH2 0xD8 JUMPI PUSH1 0x0 DUP1 REVERT JUMPDEST POP PUSH2 0xE1 PUSH2 0x34C JUMP JUMPDEST PUSH1 0x40 MLOAD PUSH2 0xEE SWAP2 SWAP1 PUSH2 0x6C8 JUMP JUMPDEST PUSH1 0x40 MLOAD DUP1 SWAP2 SUB SWAP1 RETURN JUMPDEST CALLVALUE DUP1 ISZERO PUSH2 0x103 JUMPI PUSH1 0x0 DUP1 REVERT JUMPDEST POP PUSH2 0x10C PUSH2 0x393 JUMP JUMPDEST PUSH1 0x40 MLOAD PUSH2 0x119 SWAP2 SWAP1 PUSH2 0x6F2 JUMP JUMPDEST PUSH1 0x40 MLOAD DUP1 SWAP2 SUB SWAP1 RETURN JUMPDEST CALLVALUE DUP1 ISZERO PUSH2 0x12E JUMPI PUSH1 0x0 DUP1 REVERT JUMPDEST POP PUSH2 0x149 PUSH1 0x4 DUP1 CALLDATASIZE SUB DUP2 ADD SWAP1 PUSH2 0x144 SWAP2 SWAP1 PUSH2 0x777 JUMP JUMPDEST PUSH2 0x3B7 JUMP JUMPDEST STOP JUMPDEST PUSH1 0x0 CALLVALUE SUB PUSH2 0x18E JUMPI PUSH1 0x40 MLOAD PUSH32 0x8C379A000000000000000000000000000000000000000000000000000000000 DUP2 MSTORE PUSH1 0x4 ADD PUSH2 0x185 SWAP1 PUSH2 0x83A JUMP JUMPDEST PUSH1 0x40 MLOAD DUP1 SWAP2 SUB SWAP1 REVERT JUMPDEST CALLVALUE PUSH1 0x1 PUSH1 0x0 CALLER PUSH20 0xFFFFFFFFFFFFFFFFFFFFFFFFFFFFFFFFFFFFFFFF AND PUSH20 0xFFFFFFFFFFFFFFFFFFFFFFFFFFFFFFFFFFFFFFFF AND DUP2 MSTORE PUSH1 0x20 ADD SWAP1 DUP2 MSTORE PUSH1 0x20 ADD PUSH1 0x0 KECCAK256 PUSH1 0x0 DUP3 DUP3 SLOAD PUSH2 0x1DD SWAP2 SWAP1 PUSH2 0x889 JUMP JUMPDEST SWAP3 POP POP DUP2 SWAP1 SSTORE POP CALLER PUSH20 0xFFFFFFFFFFFFFFFFFFFFFFFFFFFFFFFFFFFFFFFF AND PUSH32 0x90890809C654F11D6E72A28FA60149770A0D11EC6C92319D6CEB2BB0A4EA1A15 CALLVALUE TIMESTAMP PUSH1 0x40 MLOAD PUSH2 0x22C SWAP3 SWAP2 SWAP1 PUSH2 0x8BD JUMP JUMPDEST PUSH1 0x40 MLOAD DUP1 SWAP2 SUB SWAP1 LOG2 ADDRESS PUSH20 0xFFFFFFFFFFFFFFFFFFFFFFFFFFFFFFFFFFFFFFFF AND CALLER PUSH20 0xFFFFFFFFFFFFFFFFFFFFFFFFFFFFFFFFFFFFFFFF AND PUSH32 0x9ED053BB818FF08B8353CD46F78DB1F0799F31C9E4458FDB425C10ECCD2EFC44 CALLVALUE TIMESTAMP PUSH1 0x40 MLOAD PUSH2 0x293 SWAP3 SWAP2 SWAP1 PUSH2 0x8BD JUMP JUMPDEST PUSH1 0x40 MLOAD DUP1 SWAP2 SUB SWAP1 LOG3 JUMP JUMPDEST PUSH1 0x1 PUSH1 0x20 MSTORE DUP1 PUSH1 0x0 MSTORE PUSH1 0x40 PUSH1 0x0 KECCAK256 PUSH1 0x0 SWAP2 POP SWAP1 POP SLOAD DUP2 JUMP JUMPDEST PUSH1 0x0 DUP1 PUSH1 0x0 SWAP1 SLOAD SWAP1 PUSH2 0x100 EXP SWAP1 DIV PUSH20 0xFFFFFFFFFFFFFFFFFFFFFFFFFFFFFFFFFFFFFFFF AND PUSH20 0xFFFFFFFFFFFFFFFFFFFFFFFFFFFFFFFFFFFFFFFF AND CALLER PUSH20 0xFFFFFFFFFFFFFFFFFFFFFFFFFFFFFFFFFFFFFFFF AND EQ PUSH2 0x346 JUMPI PUSH1 0x40 MLOAD PUSH32 0x8C379A000000000000000000000000000000000000000000000000000000000 DUP2 MSTORE PUSH1 0x4 ADD PUSH2 0x33D SWAP1 PUSH2 0x958 JUMP JUMPDEST PUSH1 0x40 MLOAD DUP1 SWAP2 SUB SWAP1 REVERT JUMPDEST SELFBALANCE SWAP1 POP SWAP1 JUMP JUMPDEST PUSH1 0x0 PUSH1 0x1 PUSH1 0x0 CALLER PUSH20 0xFFFFFFFFFFFFFFFFFFFFFFFFFFFFFFFFFFFFFFFF AND PUSH20 0xFFFFFFFFFFFFFFFFFFFFFFFFFFFFFFFFFFFFFFFF AND DUP2 MSTORE PUSH1 0x20 ADD SWAP1 DUP2 MSTORE PUSH1 0x20 ADD PUSH1 0x0 KECCAK256 SLOAD SWAP1 POP SWAP1 JUMP JUMPDEST PUSH1 0x0 DUP1 SLOAD SWAP1 PUSH2 0x100 EXP SWAP1 DIV PUSH20 0xFFFFFFFFFFFFFFFFFFFFFFFFFFFFFFFFFFFFFFFF AND DUP2 JUMP JUMPDEST PUSH1 0x0 DUP1 SLOAD SWAP1 PUSH2 0x100 EXP SWAP1 DIV PUSH20 0xFFFFFFFFFFFFFFFFFFFFFFFFFFFFFFFFFFFFFFFF AND PUSH20 0xFFFFFFFFFFFFFFFFFFFFFFFFFFFFFFFFFFFFFFFF AND CALLER PUSH20 0xFFFFFFFFFFFFFFFFFFFFFFFFFFFFFFFFFFFFFFFF AND EQ PUSH2 0x445 JUMPI PUSH1 0x40 MLOAD PUSH32 0x8C379A000000000000000000000000000000000000000000000000000000000 DUP2 MSTORE PUSH1 0x4 ADD PUSH2 0x43C SWAP1 PUSH2 0x9EA JUMP JUMPDEST PUSH1 0x40 MLOAD DUP1 SWAP2 SUB SWAP1 REVERT JUMPDEST PUSH1 0x1 PUSH1 0x0 CALLER PUSH20 0xFFFFFFFFFFFFFFFFFFFFFFFFFFFFFFFFFFFFFFFF AND PUSH20 0xFFFFFFFFFFFFFFFFFFFFFFFFFFFFFFFFFFFFFFFF AND DUP2 MSTORE PUSH1 0x20 ADD SWAP1 DUP2 MSTORE PUSH1 0x20 ADD PUSH1 0x0 KECCAK256 SLOAD DUP2 GT ISZERO PUSH2 0x4C7 JUMPI PUSH1 0x40 MLOAD PUSH32 0x8C379A000000000000000000000000000000000000000000000000000000000 DUP2 MSTORE PUSH1 0x4 ADD PUSH2 0x4BE SWAP1 PUSH2 0xA7C JUMP JUMPDEST PUSH1 0x40 MLOAD DUP1 SWAP2 SUB SWAP1 REVERT JUMPDEST DUP1 PUSH1 0x1 PUSH1 0x0 CALLER PUSH20 0xFFFFFFFFFFFFFFFFFFFFFFFFFFFFFFFFFFFFFFFF AND PUSH20 0xFFFFFFFFFFFFFFFFFFFFFFFFFFFFFFFFFFFFFFFF AND DUP2 MSTORE PUSH1 0x20 ADD SWAP1 DUP2 MSTORE PUSH1 0x20 ADD PUSH1 0x0 KECCAK256 PUSH1 0x0 DUP3 DUP3 SLOAD PUSH2 0x516 SWAP2 SWAP1 PUSH2 0xA9C JUMP JUMPDEST SWAP3 POP POP DUP2 SWAP1 SSTORE POP DUP2 PUSH20 0xFFFFFFFFFFFFFFFFFFFFFFFFFFFFFFFFFFFFFFFF AND PUSH2 0x8FC DUP3 SWAP1 DUP2 ISZERO MUL SWAP1 PUSH1 0x40 MLOAD PUSH1 0x0 PUSH1 0x40 MLOAD DUP1 DUP4 SUB DUP2 DUP6 DUP9 DUP9 CALL SWAP4 POP POP POP POP ISZERO DUP1 ISZERO PUSH2 0x563 JUMPI RETURNDATASIZE PUSH1 0x0 DUP1 RETURNDATACOPY RETURNDATASIZE PUSH1 0x0 REVERT JUMPDEST POP CALLER PUSH20 0xFFFFFFFFFFFFFFFFFFFFFFFFFFFFFFFFFFFFFFFF AND PUSH32 0xF279E6A1F5E320CCA91135676D9CB6E44CA8A08C0B88342BCDB1144F6511B568 DUP3 TIMESTAMP PUSH1 0x40 MLOAD PUSH2 0x5AC SWAP3 SWAP2 SWAP1 PUSH2 0x8BD JUMP JUMPDEST PUSH1 0x40 MLOAD DUP1 SWAP2 SUB SWAP1 LOG2 CALLER PUSH20 0xFFFFFFFFFFFFFFFFFFFFFFFFFFFFFFFFFFFFFFFF AND ADDRESS PUSH20 0xFFFFFFFFFFFFFFFFFFFFFFFFFFFFFFFFFFFFFFFF AND PUSH32 0x9ED053BB818FF08B8353CD46F78DB1F0799F31C9E4458FDB425C10ECCD2EFC44 DUP4 TIMESTAMP PUSH1 0x40 MLOAD PUSH2 0x613 SWAP3 SWAP2 SWAP1 PUSH2 0x8BD JUMP JUMPDEST PUSH1 0x40 MLOAD DUP1 SWAP2 SUB SWAP1 LOG3 POP POP JUMP JUMPDEST PUSH1 0x0 DUP1 REVERT JUMPDEST PUSH1 0x0 PUSH20 0xFFFFFFFFFFFFFFFFFFFFFFFFFFFFFFFFFFFFFFFF DUP3 AND SWAP1 POP SWAP2 SWAP1 POP JUMP JUMPDEST PUSH1 0x0 PUSH2 0x64F DUP3 PUSH2 0x624 JUMP JUMPDEST SWAP1 POP SWAP2 SWAP1 POP JUMP JUMPDEST PUSH2 0x65F DUP2 PUSH2 0x644 JUMP JUMPDEST DUP2 EQ PUSH2 0x66A JUMPI PUSH1 0x0 DUP1 REVERT JUMPDEST POP JUMP JUMPDEST PUSH1 0x0 DUP2 CALLDATALOAD SWAP1 POP PUSH2 0x67C DUP2 PUSH2 0x656 JUMP JUMPDEST SWAP3 SWAP2 POP POP JUMP JUMPDEST PUSH1 0x0 PUSH1 0x20 DUP3 DUP5 SUB SLT ISZERO PUSH2 0x698 JUMPI PUSH2 0x697 PUSH2 0x61F JUMP JUMPDEST JUMPDEST PUSH1 0x0 PUSH2 0x6A6 DUP5 DUP3 DUP6 ADD PUSH2 0x66D JUMP JUMPDEST SWAP2 POP POP SWAP3 SWAP2 POP POP JUMP JUMPDEST PUSH1 0x0 DUP2 SWAP1 POP SWAP2 SWAP1 POP JUMP JUMPDEST PUSH2 0x6C2 DUP2 PUSH2 0x6AF JUMP JUMPDEST DUP3 MSTORE POP POP JUMP JUMPDEST PUSH1 0x0 PUSH1 0x20 DUP3 ADD SWAP1 POP PUSH2 0x6DD PUSH1 0x0 DUP4 ADD DUP5 PUSH2 0x6B9 JUMP JUMPDEST SWAP3 SWAP2 POP POP JUMP JUMPDEST PUSH2 0x6EC DUP2 PUSH2 0x644 JUMP JUMPDEST DUP3 MSTORE POP POP JUMP JUMPDEST PUSH1 0x0 PUSH1 0x20 DUP3 ADD SWAP1 POP PUSH2 0x707 PUSH1 0x0 DUP4 ADD DUP5 PUSH2 0x6E3 JUMP JUMPDEST SWAP3 SWAP2 POP POP JUMP JUMPDEST PUSH1 0x0 PUSH2 0x718 DUP3 PUSH2 0x624 JUMP JUMPDEST SWAP1 POP SWAP2 SWAP1 POP JUMP JUMPDEST PUSH2 0x728 DUP2 PUSH2 0x70D JUMP JUMPDEST DUP2 EQ PUSH2 0x733 JUMPI PUSH1 0x0 DUP1 REVERT JUMPDEST POP JUMP JUMPDEST PUSH1 0x0 DUP2 CALLDATALOAD SWAP1 POP PUSH2 0x745 DUP2 PUSH2 0x71F JUMP JUMPDEST SWAP3 SWAP2 POP POP JUMP JUMPDEST PUSH2 0x754 DUP2 PUSH2 0x6AF JUMP JUMPDEST DUP2 EQ PUSH2 0x75F JUMPI PUSH1 0x0 DUP1 REVERT JUMPDEST POP JUMP JUMPDEST PUSH1 0x0 DUP2 CALLDATALOAD SWAP1 POP PUSH2 0x771 DUP2 PUSH2 0x74B JUMP JUMPDEST SWAP3 SWAP2 POP POP JUMP JUMPDEST PUSH1 0x0 DUP1 PUSH1 0x40 DUP4 DUP6 SUB SLT ISZERO PUSH2 0x78E JUMPI PUSH2 0x78D PUSH2 0x61F JUMP JUMPDEST JUMPDEST PUSH1 0x0 PUSH2 0x79C DUP6 DUP3 DUP7 ADD PUSH2 0x736 JUMP JUMPDEST SWAP3 POP POP PUSH1 0x20 PUSH2 0x7AD DUP6 DUP3 DUP7 ADD PUSH2 0x762 JUMP JUMPDEST SWAP2 POP POP SWAP3 POP SWAP3 SWAP1 POP JUMP JUMPDEST PUSH1 0x0 DUP3 DUP3 MSTORE PUSH1 0x20 DUP3 ADD SWAP1 POP SWAP3 SWAP2 POP POP JUMP JUMPDEST PUSH32 0x596F75206E65656420746F206465706F73697420736F6D6520616D6F756E7420 PUSH1 0x0 DUP3 ADD MSTORE PUSH32 0x6F66206D6F6E6579210000000000000000000000000000000000000000000000 PUSH1 0x20 DUP3 ADD MSTORE POP JUMP JUMPDEST PUSH1 0x0 PUSH2 0x824 PUSH1 0x29 DUP4 PUSH2 0x7B7 JUMP JUMPDEST SWAP2 POP PUSH2 0x82F DUP3 PUSH2 0x7C8 JUMP JUMPDEST PUSH1 0x40 DUP3 ADD SWAP1 POP SWAP2 SWAP1 POP JUMP JUMPDEST PUSH1 0x0 PUSH1 0x20 DUP3 ADD SWAP1 POP DUP2 DUP2 SUB PUSH1 0x0 DUP4 ADD MSTORE PUSH2 0x853 DUP2 PUSH2 0x817 JUMP JUMPDEST SWAP1 POP SWAP2 SWAP1 POP JUMP JUMPDEST PUSH32 0x4E487B7100000000000000000000000000000000000000000000000000000000 PUSH1 0x0 MSTORE PUSH1 0x11 PUSH1 0x4 MSTORE PUSH1 0x24 PUSH1 0x0 REVERT JUMPDEST PUSH1 0x0 PUSH2 0x894 DUP3 PUSH2 0x6AF JUMP JUMPDEST SWAP2 POP PUSH2 0x89F DUP4 PUSH2 0x6AF JUMP JUMPDEST SWAP3 POP DUP3 DUP3 ADD SWAP1 POP DUP1 DUP3 GT ISZERO PUSH2 0x8B7 JUMPI PUSH2 0x8B6 PUSH2 0x85A JUMP JUMPDEST JUMPDEST SWAP3 SWAP2 POP POP JUMP JUMPDEST PUSH1 0x0 PUSH1 0x40 DUP3 ADD SWAP1 POP PUSH2 0x8D2 PUSH1 0x0 DUP4 ADD DUP6 PUSH2 0x6B9 JUMP JUMPDEST PUSH2 0x8DF PUSH1 0x20 DUP4 ADD DUP5 PUSH2 0x6B9 JUMP JUMPDEST SWAP4 SWAP3 POP POP POP JUMP JUMPDEST PUSH32 0x596F75206D75737420626520746865206F776E6572206F66207468652062616E PUSH1 0x0 DUP3 ADD MSTORE PUSH32 0x6B20746F2073656520616C6C2062616C616E6365732E00000000000000000000 PUSH1 0x20 DUP3 ADD MSTORE POP JUMP JUMPDEST PUSH1 0x0 PUSH2 0x942 PUSH1 0x36 DUP4 PUSH2 0x7B7 JUMP JUMPDEST SWAP2 POP PUSH2 0x94D DUP3 PUSH2 0x8E6 JUMP JUMPDEST PUSH1 0x40 DUP3 ADD SWAP1 POP SWAP2 SWAP1 POP JUMP JUMPDEST PUSH1 0x0 PUSH1 0x20 DUP3 ADD SWAP1 POP DUP2 DUP2 SUB PUSH1 0x0 DUP4 ADD MSTORE PUSH2 0x971 DUP2 PUSH2 0x935 JUMP JUMPDEST SWAP1 POP SWAP2 SWAP1 POP JUMP JUMPDEST PUSH32 0x596F75206D75737420626520746865206F776E657220746F206D616B65207769 PUSH1 0x0 DUP3 ADD MSTORE PUSH32 0x746864726177616C730000000000000000000000000000000000000000000000 PUSH1 0x20 DUP3 ADD MSTORE POP JUMP JUMPDEST PUSH1 0x0 PUSH2 0x9D4 PUSH1 0x29 DUP4 PUSH2 0x7B7 JUMP JUMPDEST SWAP2 POP PUSH2 0x9DF DUP3 PUSH2 0x978 JUMP JUMPDEST PUSH1 0x40 DUP3 ADD SWAP1 POP SWAP2 SWAP1 POP JUMP JUMPDEST PUSH1 0x0 PUSH1 0x20 DUP3 ADD SWAP1 POP DUP2 DUP2 SUB PUSH1 0x0 DUP4 ADD MSTORE PUSH2 0xA03 DUP2 PUSH2 0x9C7 JUMP JUMPDEST SWAP1 POP SWAP2 SWAP1 POP JUMP JUMPDEST PUSH32 0x596F75206861766520696E7375666669656E742066756E647320746F20776974 PUSH1 0x0 DUP3 ADD MSTORE PUSH32 0x6864726177000000000000000000000000000000000000000000000000000000 PUSH1 0x20 DUP3 ADD MSTORE POP JUMP JUMPDEST PUSH1 0x0 PUSH2 0xA66 PUSH1 0x25 DUP4 PUSH2 0x7B7 JUMP JUMPDEST SWAP2 POP PUSH2 0xA71 DUP3 PUSH2 0xA0A JUMP JUMPDEST PUSH1 0x40 DUP3 ADD SWAP1 POP SWAP2 SWAP1 POP JUMP JUMPDEST PUSH1 0x0 PUSH1 0x20 DUP3 ADD SWAP1 POP DUP2 DUP2 SUB PUSH1 0x0 DUP4 ADD MSTORE PUSH2 0xA95 DUP2 PUSH2 0xA59 JUMP JUMPDEST SWAP1 POP SWAP2 SWAP1 POP JUMP JUMPDEST PUSH1 0x0 PUSH2 0xAA7 DUP3 PUSH2 0x6AF JUMP JUMPDEST SWAP2 POP PUSH2 0xAB2 DUP4 PUSH2 0x6AF JUMP JUMPDEST SWAP3 POP DUP3 DUP3 SUB SWAP1 POP DUP2 DUP2 GT ISZERO PUSH2 0xACA JUMPI PUSH2 0xAC9 PUSH2 0x85A JUMP JUMPDEST JUMPDEST SWAP3 SWAP2 POP POP JUMP INVALID LOG2 PUSH5 0x6970667358 0x22 SLT KECCAK256 RETURNDATASIZE PUSH3 0x5AD02D 0x21 0xE4 0xD4 PUSH28 0x98DAF47C3EDA24B83C85D17BDA0A7035A6443ED6FB87C764736F6C63 NUMBER STOP ADDMOD SHL STOP CALLER "
        },
        "methodIdentifiers": {
          "bankOwner()": "e147aaa7",
          "customerBalance(address)": "37ebe47b",
          "depositMoney()": "16c05aa2",
          "getBankBalance()": "7b83b50b",
          "getCustomerBalance()": "a853409a",
          "withdrawMoney(address,uint256)": "f274c897"
        }
      }
    }
  }
}